{
  "_format": "hh-sol-artifact-1",
  "contractName": "Text",
  "sourceName": "contracts/Text.sol",
  "abi": [
    {
      "inputs": [
        {
          "internalType": "address",
          "name": "_trustedForwarder",
          "type": "address"
        }
      ],
      "stateMutability": "nonpayable",
      "type": "constructor"
    },
    {
      "inputs": [],
      "name": "admin",
      "outputs": [
        {
          "internalType": "address",
          "name": "",
          "type": "address"
        }
      ],
      "stateMutability": "view",
      "type": "function"
    },
    {
      "inputs": [
        {
          "internalType": "address",
          "name": "forwarder",
          "type": "address"
        }
      ],
      "name": "isTrustedForwarder",
      "outputs": [
        {
          "internalType": "bool",
          "name": "",
          "type": "bool"
        }
      ],
      "stateMutability": "view",
      "type": "function"
    },
    {
      "inputs": [
        {
          "internalType": "string",
          "name": "_text",
          "type": "string"
        }
      ],
      "name": "setText",
      "outputs": [],
      "stateMutability": "nonpayable",
      "type": "function"
    },
    {
      "inputs": [
        {
          "internalType": "address",
          "name": "_trustedForwarder",
          "type": "address"
        }
      ],
      "name": "setTrustedForwarder",
      "outputs": [],
      "stateMutability": "nonpayable",
      "type": "function"
    },
    {
      "inputs": [],
      "name": "text",
      "outputs": [
        {
          "internalType": "string",
          "name": "",
          "type": "string"
        }
      ],
      "stateMutability": "view",
      "type": "function"
    },
    {
      "inputs": [],
      "name": "trustedForwarder",
      "outputs": [
        {
          "internalType": "address",
          "name": "",
          "type": "address"
        }
      ],
      "stateMutability": "view",
      "type": "function"
    },
    {
      "inputs": [],
      "name": "versionRecipient",
      "outputs": [
        {
          "internalType": "string",
          "name": "",
          "type": "string"
        }
      ],
      "stateMutability": "pure",
      "type": "function"
    }
  ],
  "bytecode": "0x608060405234801561001057600080fd5b506040516105a33803806105a383398101604081905261002f91610062565b600080546001600160a01b0319166001600160a01b03831617905550600280546001600160a01b03191633179055610090565b600060208284031215610073578081fd5b81516001600160a01b0381168114610089578182fd5b9392505050565b6105048061009f6000396000f3fe608060405234801561001057600080fd5b506004361061007d5760003560e01c80635d3a1f9d1161005b5780635d3a1f9d146100ef5780637da0a87714610104578063da74222814610129578063f851a4401461013c57600080fd5b80631f1bd69214610082578063486ff0cd146100a0578063572b6c05146100bd575b600080fd5b61008a61014f565b604051610097919061042a565b60405180910390f35b6040805180820190915260018152603160f81b602082015261008a565b6100df6100cb366004610352565b6000546001600160a01b0391821691161490565b6040519015158152602001610097565b6101026100fd366004610380565b6101dd565b005b6000546001600160a01b03165b6040516001600160a01b039091168152602001610097565b610102610137366004610352565b6101f4565b600254610111906001600160a01b031681565b6001805461015c9061047d565b80601f01602080910402602001604051908101604052809291908181526020018280546101889061047d565b80156101d55780601f106101aa576101008083540402835291602001916101d5565b820191906000526020600020905b8154815290600101906020018083116101b857829003601f168201915b505050505081565b80516101f09060019060208401906102b9565b5050565b6101fc610285565b6002546001600160a01b039081169116146102675760405162461bcd60e51b815260206004820152602160248201527f4f6e6c792061646d696e2063616e2063616c6c20746869732066756e6374696f6044820152603760f91b606482015260840160405180910390fd5b600080546001600160a01b0319166001600160a01b03831617905550565b6000601436108015906102a257506000546001600160a01b031633145b156102b4575060131936013560601c90565b503390565b8280546102c59061047d565b90600052602060002090601f0160209004810192826102e7576000855561032d565b82601f1061030057805160ff191683800117855561032d565b8280016001018555821561032d579182015b8281111561032d578251825591602001919060010190610312565b5061033992915061033d565b5090565b5b80821115610339576000815560010161033e565b600060208284031215610363578081fd5b81356001600160a01b0381168114610379578182fd5b9392505050565b600060208284031215610391578081fd5b813567ffffffffffffffff808211156103a8578283fd5b818401915084601f8301126103bb578283fd5b8135818111156103cd576103cd6104b8565b604051601f8201601f19908116603f011681019083821181831017156103f5576103f56104b8565b8160405282815287602084870101111561040d578586fd5b826020860160208301379182016020019490945295945050505050565b6000602080835283518082850152825b818110156104565785810183015185820160400152820161043a565b818111156104675783604083870101525b50601f01601f1916929092016040019392505050565b600181811c9082168061049157607f821691505b602082108114156104b257634e487b7160e01b600052602260045260246000fd5b50919050565b634e487b7160e01b600052604160045260246000fdfea264697066735822122098b3675d892534fa9772aefbc3f8628f69e27cc2de54842c1883c4053f33780764736f6c63430008040033",
  "linkReferences": {},
  "deployedLinkReferences": {}
}